{
  "contractName": "EHR",
  "abi": [
    {
      "inputs": [
        {
          "internalType": "string",
          "name": "_hash",
          "type": "string"
        }
      ],
      "name": "addRecord",
      "outputs": [],
      "stateMutability": "nonpayable",
      "type": "function"
    },
    {
      "inputs": [
        {
          "internalType": "address",
          "name": "_patient",
          "type": "address"
        }
      ],
      "name": "getRecords",
      "outputs": [
        {
          "components": [
            {
              "internalType": "string",
              "name": "recordHash",
              "type": "string"
            },
            {
              "internalType": "uint256",
              "name": "timestamp",
              "type": "uint256"
            }
          ],
          "internalType": "struct EHR.Record[]",
          "name": "",
          "type": "tuple[]"
        }
      ],
      "stateMutability": "view",
      "type": "function",
      "constant": true
    }
  ],
  "bytecode": "0x608060405234801561001057600080fd5b5061095c806100206000396000f3fe608060405234801561001057600080fd5b50600436106100365760003560e01c8063a0076e841461003b578063d81aa8c41461006b575b600080fd5b610055600480360381019061005091906102d3565b610087565b60405161006291906104a8565b60405180910390f35b610085600480360381019061008091906105ff565b6101c0565b005b60606000808373ffffffffffffffffffffffffffffffffffffffff1673ffffffffffffffffffffffffffffffffffffffff168152602001908152602001600020805480602002602001604051908101604052809291908181526020016000905b828210156101b5578382906000526020600020906002020160405180604001604052908160008201805461011a90610677565b80601f016020809104026020016040519081016040528092919081815260200182805461014690610677565b80156101935780601f1061016857610100808354040283529160200191610193565b820191906000526020600020905b81548152906001019060200180831161017657829003601f168201915b50505050508152602001600182015481525050815260200190600101906100e7565b505050509050919050565b6000803373ffffffffffffffffffffffffffffffffffffffff1673ffffffffffffffffffffffffffffffffffffffff168152602001908152602001600020604051806040016040528083815260200142815250908060018154018082558091505060019003906000526020600020906002020160009091909190915060008201518160000190816102519190610854565b5060208201518160010155505050565b6000604051905090565b600080fd5b600080fd5b600073ffffffffffffffffffffffffffffffffffffffff82169050919050565b60006102a082610275565b9050919050565b6102b081610295565b81146102bb57600080fd5b50565b6000813590506102cd816102a7565b92915050565b6000602082840312156102e9576102e861026b565b5b60006102f7848285016102be565b91505092915050565b600081519050919050565b600082825260208201905092915050565b6000819050602082019050919050565b600081519050919050565b600082825260208201905092915050565b60005b8381101561036657808201518184015260208101905061034b565b60008484015250505050565b6000601f19601f8301169050919050565b600061038e8261032c565b6103988185610337565b93506103a8818560208601610348565b6103b181610372565b840191505092915050565b6000819050919050565b6103cf816103bc565b82525050565b600060408301600083015184820360008601526103f28282610383565b915050602083015161040760208601826103c6565b508091505092915050565b600061041e83836103d5565b905092915050565b6000602082019050919050565b600061043e82610300565b610448818561030b565b93508360208202850161045a8561031c565b8060005b8581101561049657848403895281516104778582610412565b945061048283610426565b925060208a0199505060018101905061045e565b50829750879550505050505092915050565b600060208201905081810360008301526104c28184610433565b905092915050565b600080fd5b600080fd5b7f4e487b7100000000000000000000000000000000000000000000000000000000600052604160045260246000fd5b61050c82610372565b810181811067ffffffffffffffff8211171561052b5761052a6104d4565b5b80604052505050565b600061053e610261565b905061054a8282610503565b919050565b600067ffffffffffffffff82111561056a576105696104d4565b5b61057382610372565b9050602081019050919050565b82818337600083830152505050565b60006105a261059d8461054f565b610534565b9050828152602081018484840111156105be576105bd6104cf565b5b6105c9848285610580565b509392505050565b600082601f8301126105e6576105e56104ca565b5b81356105f684826020860161058f565b91505092915050565b6000602082840312156106155761061461026b565b5b600082013567ffffffffffffffff81111561063357610632610270565b5b61063f848285016105d1565b91505092915050565b7f4e487b7100000000000000000000000000000000000000000000000000000000600052602260045260246000fd5b6000600282049050600182168061068f57607f821691505b6020821081036106a2576106a1610648565b5b50919050565b60008190508160005260206000209050919050565b60006020601f8301049050919050565b600082821b905092915050565b60006008830261070a7fffffffffffffffffffffffffffffffffffffffffffffffffffffffffffffffff826106cd565b61071486836106cd565b95508019841693508086168417925050509392505050565b6000819050919050565b600061075161074c610747846103bc565b61072c565b6103bc565b9050919050565b6000819050919050565b61076b83610736565b61077f61077782610758565b8484546106da565b825550505050565b600090565b610794610787565b61079f818484610762565b505050565b5b818110156107c3576107b860008261078c565b6001810190506107a5565b5050565b601f821115610808576107d9816106a8565b6107e2846106bd565b810160208510156107f1578190505b6108056107fd856106bd565b8301826107a4565b50505b505050565b600082821c905092915050565b600061082b6000198460080261080d565b1980831691505092915050565b6000610844838361081a565b9150826002028217905092915050565b61085d8261032c565b67ffffffffffffffff811115610876576108756104d4565b5b6108808254610677565b61088b8282856107c7565b600060209050601f8311600181146108be57600084156108ac578287015190505b6108b68582610838565b86555061091e565b601f1984166108cc866106a8565b60005b828110156108f4578489015182556001820191506020850194506020810190506108cf565b86831015610911578489015161090d601f89168261081a565b8355505b6001600288020188555050505b50505050505056fea26469706673582212200cdb7767e89fb55ef6fa05df7f2ba17e8f56d6a2cb3a0ba1571707dcd5abc13e64736f6c63430008130033",
  "immutableReferences": {},
  "source": "// SPDX-License-Identifier: MIT\r\npragma solidity ^0.8.19;\r\n\r\n\r\n\r\ncontract EHR {\r\n    struct Record {\r\n        string recordHash;\r\n        uint timestamp;\r\n    }\r\n\r\n    mapping(address => Record[]) private records;\r\n\r\n    function addRecord(string memory _hash) public {\r\n        records[msg.sender].push(Record(_hash, block.timestamp));\r\n    }\r\n\r\n    function getRecords(address _patient) public view returns (Record[] memory) {\r\n        return records[_patient];\r\n    }\r\n}\r\n",
  "sourcePath": "C:\\Users\\riyaz\\OneDrive\\Desktop\\blockchain-ehr\\contracts\\EHR.sol",
  "compiler": {
    "name": "solc",
    "version": "0.8.19+commit.7dd6d404.Emscripten.clang"
  },
  "schemaVersion": "3.4.16",
  "updatedAt": "2026-01-27T17:18:00.306Z",
  "networkType": "ethereum",
  "devdoc": {
    "kind": "dev",
    "methods": {},
    "version": 1
  },
  "userdoc": {
    "kind": "user",
    "methods": {},
    "version": 1
  }
}